{
  "contractName": "UserContract",
  "abi": [
    {
      "inputs": [
        {
          "internalType": "uint256",
          "name": "",
          "type": "uint256"
        }
      ],
      "name": "users",
      "outputs": [
        {
          "internalType": "string",
          "name": "Name",
          "type": "string"
        },
        {
          "internalType": "uint256",
          "name": "Age",
          "type": "uint256"
        }
      ],
      "stateMutability": "view",
      "type": "function",
      "constant": true
    },
    {
      "inputs": [
        {
          "internalType": "uint256",
          "name": "no",
          "type": "uint256"
        },
        {
          "internalType": "string",
          "name": "_name",
          "type": "string"
        },
        {
          "internalType": "uint256",
          "name": "_age",
          "type": "uint256"
        }
      ],
      "name": "storeUser",
      "outputs": [],
      "stateMutability": "nonpayable",
      "type": "function"
    }
  ],
  "bytecode": "0x608060405234801561001057600080fd5b50610781806100206000396000f3fe608060405234801561001057600080fd5b50600436106100365760003560e01c8063365b98b21461003b5780635a857a791461006c575b600080fd5b610055600480360381019061005091906101cd565b610088565b604051610063929190610299565b60405180910390f35b610086600480360381019061008191906103fe565b610134565b005b60006020528060005260406000206000915090508060000180546100ab9061049c565b80601f01602080910402602001604051908101604052809291908181526020018280546100d79061049c565b80156101245780601f106100f957610100808354040283529160200191610124565b820191906000526020600020905b81548152906001019060200180831161010757829003601f168201915b5050505050908060010154905082565b60405180604001604052808381526020018281525060008085815260200190815260200160002060008201518160000190816101709190610679565b5060208201518160010155905050505050565b6000604051905090565b600080fd5b600080fd5b6000819050919050565b6101aa81610197565b81146101b557600080fd5b50565b6000813590506101c7816101a1565b92915050565b6000602082840312156101e3576101e261018d565b5b60006101f1848285016101b8565b91505092915050565b600081519050919050565b600082825260208201905092915050565b60005b83811015610234578082015181840152602081019050610219565b60008484015250505050565b6000601f19601f8301169050919050565b600061025c826101fa565b6102668185610205565b9350610276818560208601610216565b61027f81610240565b840191505092915050565b61029381610197565b82525050565b600060408201905081810360008301526102b38185610251565b90506102c2602083018461028a565b9392505050565b600080fd5b600080fd5b7f4e487b7100000000000000000000000000000000000000000000000000000000600052604160045260246000fd5b61030b82610240565b810181811067ffffffffffffffff8211171561032a576103296102d3565b5b80604052505050565b600061033d610183565b90506103498282610302565b919050565b600067ffffffffffffffff821115610369576103686102d3565b5b61037282610240565b9050602081019050919050565b82818337600083830152505050565b60006103a161039c8461034e565b610333565b9050828152602081018484840111156103bd576103bc6102ce565b5b6103c884828561037f565b509392505050565b600082601f8301126103e5576103e46102c9565b5b81356103f584826020860161038e565b91505092915050565b6000806000606084860312156104175761041661018d565b5b6000610425868287016101b8565b935050602084013567ffffffffffffffff81111561044657610445610192565b5b610452868287016103d0565b9250506040610463868287016101b8565b9150509250925092565b7f4e487b7100000000000000000000000000000000000000000000000000000000600052602260045260246000fd5b600060028204905060018216806104b457607f821691505b6020821081036104c7576104c661046d565b5b50919050565b60008190508160005260206000209050919050565b60006020601f8301049050919050565b600082821b905092915050565b60006008830261052f7fffffffffffffffffffffffffffffffffffffffffffffffffffffffffffffffff826104f2565b61053986836104f2565b95508019841693508086168417925050509392505050565b6000819050919050565b600061057661057161056c84610197565b610551565b610197565b9050919050565b6000819050919050565b6105908361055b565b6105a461059c8261057d565b8484546104ff565b825550505050565b600090565b6105b96105ac565b6105c4818484610587565b505050565b5b818110156105e8576105dd6000826105b1565b6001810190506105ca565b5050565b601f82111561062d576105fe816104cd565b610607846104e2565b81016020851015610616578190505b61062a610622856104e2565b8301826105c9565b50505b505050565b600082821c905092915050565b600061065060001984600802610632565b1980831691505092915050565b6000610669838361063f565b9150826002028217905092915050565b610682826101fa565b67ffffffffffffffff81111561069b5761069a6102d3565b5b6106a5825461049c565b6106b08282856105ec565b600060209050601f8311600181146106e357600084156106d1578287015190505b6106db858261065d565b865550610743565b601f1984166106f1866104cd565b60005b82811015610719578489015182556001820191506020850194506020810190506106f4565b868310156107365784890151610732601f89168261063f565b8355505b6001600288020188555050505b50505050505056fea2646970667358221220fc47ac0cc9d7a3c74b539bc5519cd75d28c49ee40cc261037dbedfb1924f2ef064736f6c63430008110033",
  "immutableReferences": {},
  "source": "// SPDX-License-Identifier: MIT\npragma solidity ^0.8.10;\npragma abicoder v2;\n\ncontract UserContract {\n    struct user {\n        string Name;\n        uint256 Age;\n    }\n    mapping(uint256 => user) public users;\n\n    function storeUser(\n        uint256 no,\n        string memory _name,\n        uint256 _age\n    ) public {\n        users[no] = user(_name, _age);\n    }\n}\n",
  "sourcePath": "/home/rajat/Desktop/Task/truffle/contracts/UserContract.sol",
  "compiler": {
    "name": "solc",
    "version": "0.8.17+commit.8df45f5f.Emscripten.clang"
  },
  "schemaVersion": "3.4.11",
  "updatedAt": "2023-01-16T10:49:30.578Z",
  "networkType": "ethereum",
  "devdoc": {
    "kind": "dev",
    "methods": {},
    "version": 1
  },
  "userdoc": {
    "kind": "user",
    "methods": {},
    "version": 1
  }
}